:0400000023EF3FF0BB
:107E4600000126EF3FF0000E956E000E936E000EB9
:107E5600836E000E816E83800B0E026E260E016EFF
:107E66005E0EE82EFED7012EFCD7022EFAD783909F
:107E760083820B0E026E260E016E5E0EE82EFED774
:107E8600012EFCD7022EFAD7839283840B0E026E44
:107E9600260E016E5E0EE82EFED7012EFCD7022EB0
:107EA600FAD7839483860B0E026E260E016E5E0E43
:107EB600E82EFED7012EFCD7022EFAD783968388AA
:107EC6000B0E026E260E016E5E0EE82EFED7012EFA
:107ED600FCD7022EFAD78398838A0B0E026E260EE3
:107EE600016E5E0EE82EFED7012EFCD7022EFAD7C3
:107EF600839A838C0B0E026E260E016E5E0EE82EA2
:107F0600FED7012EFCD7022EFAD7839C838E0B0E4A
:107F1600026E260E016E5E0EE82EFED7012EFCD7EF
:107F2600022EFAD7839E81800B0E026E260E016EFC
:107F36005E0EE82EFED7012EFCD7022EFAD78190D0
:107F460081820B0E026E260E016E5E0EE82EFED7A5
:107F5600012EFCD7022EFAD7819281840B0E026E77
:107F6600260E016E5E0EE82EFED7012EFCD7022EDF
:107F7600FAD7819481860B0E026E260E016E5E0E76
:107F8600E82EFED7012EFCD7022EFAD781968188DD
:107F96000B0E026E260E016E5E0EE82EFED7012E29
:107FA600FCD7022EFAD78198818A0B0E026E260E16
:107FB600016E5E0EE82EFED7012EFCD7022EFAD7F2
:107FC600819A818C0B0E026E260E016E5E0EE82ED5
:107FD600FED7012EFCD7022EFAD7819C818E0B0E7E
:107FE600026E260E016E5E0EE82EFED7012EFCD71F
:0A7FF600022EFAD7819E00EF00F082
:020000040020DA
:08000000FFFFFFFFFFFFFFFF00
:020000040030CA
:0E000000000C1F1EFF8385FF0FC00FE00F4096
:00000001FF
