:04000000A8EF04F071
:1008000000526F626572742043616272616C0054C1
:100810006573746565650000000E106E000E0F6E46
:1008200010D00F500B240D6E10500C200E6E0DC00A
:10083000F6FF0EC0F7FF0800F55071EC04F00F4A08
:10084000102A0F500B240D6E10500C200E6E0DC090
:10085000F6FF0EC0F7FF0800F5500009D8B41200EB
:10086000E0D7000E036E800E026EE9EC04F0000E7D
:10087000036E300E026EE9EC04F0000E036E380ECB
:10088000026EE9EC04F0000E036E0F0E026EE9EC4E
:1008900004F01A0E056EF80EE82EFED7052EFCD7D2
:1008A00000D01200000E956E000E966E000E846E43
:1008B00031EC04F0010E0B6E080E0C6E0CEC04F023
:1008C000000E0A6E020E096E000E0C6E020E0B6E0A
:1008D000D6EC04F00F0E0B6E080E0C6E0CEC04F050
:1008E000FFD70A6E84840AC083FF8DEC04F01A0ED1
:1008F000096EF80EE82EFED7092EFCD700D084949E
:1009000013C005F014C006F011C007F012C008F0C3
:10091000BFEC04F0134A142A120084A202D084927D
:1009200001D084821A0E016EF80EE82EFED7012E39
:10093000FCD700D084A202D0849201D084821A0E07
:10094000016EF80EE82EFED7012EFCD700D0120063
:10095000EE0EF66E090EF76E000EF86E00EE11F058
:1009600010EE04F00900F5CFEEFFE550E150FAE19A
:10097000000EF86E080EF76E000152EF04F0020E42
:1009800007180810D8A409D0C00E0524026E000E66
:100990000620036EE9EC04F01200800E0524026EBE
:1009A000000E0620036EE9EC04F0120009C013F0FB
:1009B0000AC014F00BC011F00CC012F009C005F011
:1009C0000AC006F00BC007F00CC008F0BFEC04F042
:1009D0001200849402C083FF8DEC04F01A0E046EA2
:1009E000F80EE82EFED7042EFCD700D0120001002E
:0209F000010004
:020000040020DA
:08000000FFFFFFFFFFFFFFFF00
:020000040030CA
:0E000000000C1F1EFF8385FF0FC00FE00F4096
:00000001FF
